{
  "_format": "hh-sol-artifact-1",
  "contractName": "BasicIterator",
  "sourceName": "contracts/BasicIterator.sol",
  "abi": [
    {
      "inputs": [],
      "stateMutability": "nonpayable",
      "type": "constructor"
    },
    {
      "inputs": [],
      "name": "getSum",
      "outputs": [
        {
          "internalType": "uint256",
          "name": "",
          "type": "uint256"
        }
      ],
      "stateMutability": "view",
      "type": "function"
    }
  ],
  "bytecode": "0x608060405234801561001057600080fd5b50336000806101000a81548173ffffffffffffffffffffffffffffffffffffffff021916908373ffffffffffffffffffffffffffffffffffffffff16021790555060006100698160ff166100ed60201b6100e21760201c565b5b600a8160ff1610156100e7578060018260ff16600a81106100b4577f4e487b7100000000000000000000000000000000000000000000000000000000600052603260045260246000fd5b602091828204019190066101000a81548160ff021916908360ff16021790555080806100df906101f6565b91505061006a565b5061024f565b6101898160405160240161010191906101c4565b6040516020818303038152906040527ff5b1bba9000000000000000000000000000000000000000000000000000000007bffffffffffffffffffffffffffffffffffffffffffffffffffffffff19166020820180517bffffffffffffffffffffffffffffffffffffffffffffffffffffffff838183161783525050505061018c60201b60201c565b50565b60008151905060006a636f6e736f6c652e6c6f679050602083016000808483855afa5050505050565b6101be816101df565b82525050565b60006020820190506101d960008301846101b5565b92915050565b6000819050919050565b600060ff82169050919050565b6000610201826101e9565b915060ff82141561021557610214610220565b5b600182019050919050565b7f4e487b7100000000000000000000000000000000000000000000000000000000600052601160045260246000fd5b6102ab8061025e6000396000f3fe608060405234801561001057600080fd5b506004361061002b5760003560e01c8063569c5f6d14610030575b600080fd5b61003861004e565b60405161004591906101b3565b60405180910390f35b6000806000905060005b600a8160ff1610156100d75760018160ff16600a81106100a1577f4e487b7100000000000000000000000000000000000000000000000000000000600052603260045260246000fd5b602091828204019190069054906101000a900460ff16826100c291906101ce565b915080806100cf9061021c565b915050610058565b8160ff169250505090565b610178816040516024016100f691906101b3565b6040516020818303038152906040527ff5b1bba9000000000000000000000000000000000000000000000000000000007bffffffffffffffffffffffffffffffffffffffffffffffffffffffff19166020820180517bffffffffffffffffffffffffffffffffffffffffffffffffffffffff838183161783525050505061017b565b50565b60008151905060006a636f6e736f6c652e6c6f679050602083016000808483855afa5050505050565b6101ad81610205565b82525050565b60006020820190506101c860008301846101a4565b92915050565b60006101d98261020f565b91506101e48361020f565b92508260ff038211156101fa576101f9610246565b5b828201905092915050565b6000819050919050565b600060ff82169050919050565b60006102278261020f565b915060ff82141561023b5761023a610246565b5b600182019050919050565b7f4e487b7100000000000000000000000000000000000000000000000000000000600052601160045260246000fdfea2646970667358221220c302003205d0c71127104843f6346f815ddaf3b92e8f4b679d0570c23457f04064736f6c63430008040033",
  "linkReferences": {},
  "deployedLinkReferences": {}
}