{
  "_format": "hh-sol-artifact-1",
  "contractName": "Greeter",
  "sourceName": "contracts/Greeter.sol",
  "abi": [
    {
      "inputs": [
        {
          "internalType": "string",
          "name": "_greeting",
          "type": "string"
        }
      ],
      "stateMutability": "nonpayable",
      "type": "constructor"
    },
    {
      "inputs": [],
      "name": "getBlockNumber",
      "outputs": [
        {
          "internalType": "uint256",
          "name": "",
          "type": "uint256"
        }
      ],
      "stateMutability": "view",
      "type": "function"
    },
    {
      "inputs": [],
      "name": "greet",
      "outputs": [
        {
          "internalType": "string",
          "name": "",
          "type": "string"
        }
      ],
      "stateMutability": "view",
      "type": "function"
    },
    {
      "inputs": [
        {
          "internalType": "string",
          "name": "_newgreeting",
          "type": "string"
        }
      ],
      "name": "setGreeting",
      "outputs": [],
      "stateMutability": "nonpayable",
      "type": "function"
    }
  ],
  "bytecode": "0x60806040523480156200001157600080fd5b5060405162000867380380620008678339818101604052810190620000379190620001b9565b336000806101000a81548173ffffffffffffffffffffffffffffffffffffffff021916908373ffffffffffffffffffffffffffffffffffffffff16021790555080600190805190602001906200008f92919062000097565b50506200036e565b828054620000a59062000293565b90600052602060002090601f016020900481019282620000c9576000855562000115565b82601f10620000e457805160ff191683800117855562000115565b8280016001018555821562000115579182015b8281111562000114578251825591602001919060010190620000f7565b5b50905062000124919062000128565b5090565b5b808211156200014357600081600090555060010162000129565b5090565b60006200015e620001588462000227565b620001fe565b9050828152602081018484840111156200017757600080fd5b620001848482856200025d565b509392505050565b600082601f8301126200019e57600080fd5b8151620001b084826020860162000147565b91505092915050565b600060208284031215620001cc57600080fd5b600082015167ffffffffffffffff811115620001e757600080fd5b620001f5848285016200018c565b91505092915050565b60006200020a6200021d565b9050620002188282620002c9565b919050565b6000604051905090565b600067ffffffffffffffff8211156200024557620002446200032e565b5b62000250826200035d565b9050602081019050919050565b60005b838110156200027d57808201518184015260208101905062000260565b838111156200028d576000848401525b50505050565b60006002820490506001821680620002ac57607f821691505b60208210811415620002c357620002c2620002ff565b5b50919050565b620002d4826200035d565b810181811067ffffffffffffffff82111715620002f657620002f56200032e565b5b80604052505050565b7f4e487b7100000000000000000000000000000000000000000000000000000000600052602260045260246000fd5b7f4e487b7100000000000000000000000000000000000000000000000000000000600052604160045260246000fd5b6000601f19601f8301169050919050565b6104e9806200037e6000396000f3fe608060405234801561001057600080fd5b50600436106100415760003560e01c806342cbb15c14610046578063a413686214610064578063cfae321714610080575b600080fd5b61004e61009e565b60405161005b9190610308565b60405180910390f35b61007e6004803603810190610079919061025d565b6100a6565b005b6100886100c0565b60405161009591906102e6565b60405180910390f35b600043905090565b80600190805190602001906100bc929190610152565b5050565b6060600180546100cf906103e1565b80601f01602080910402602001604051908101604052809291908181526020018280546100fb906103e1565b80156101485780601f1061011d57610100808354040283529160200191610148565b820191906000526020600020905b81548152906001019060200180831161012b57829003601f168201915b5050505050905090565b82805461015e906103e1565b90600052602060002090601f01602090048101928261018057600085556101c7565b82601f1061019957805160ff19168380011785556101c7565b828001600101855582156101c7579182015b828111156101c65782518255916020019190600101906101ab565b5b5090506101d491906101d8565b5090565b5b808211156101f15760008160009055506001016101d9565b5090565b600061020861020384610348565b610323565b90508281526020810184848401111561022057600080fd5b61022b84828561039f565b509392505050565b600082601f83011261024457600080fd5b81356102548482602086016101f5565b91505092915050565b60006020828403121561026f57600080fd5b600082013567ffffffffffffffff81111561028957600080fd5b61029584828501610233565b91505092915050565b60006102a982610379565b6102b38185610384565b93506102c38185602086016103ae565b6102cc816104a2565b840191505092915050565b6102e081610395565b82525050565b60006020820190508181036000830152610300818461029e565b905092915050565b600060208201905061031d60008301846102d7565b92915050565b600061032d61033e565b90506103398282610413565b919050565b6000604051905090565b600067ffffffffffffffff82111561036357610362610473565b5b61036c826104a2565b9050602081019050919050565b600081519050919050565b600082825260208201905092915050565b6000819050919050565b82818337600083830152505050565b60005b838110156103cc5780820151818401526020810190506103b1565b838111156103db576000848401525b50505050565b600060028204905060018216806103f957607f821691505b6020821081141561040d5761040c610444565b5b50919050565b61041c826104a2565b810181811067ffffffffffffffff8211171561043b5761043a610473565b5b80604052505050565b7f4e487b7100000000000000000000000000000000000000000000000000000000600052602260045260246000fd5b7f4e487b7100000000000000000000000000000000000000000000000000000000600052604160045260246000fd5b6000601f19601f830116905091905056fea2646970667358221220dbef46bac0b7bfb9d784e4c8e82c4394871dfb495125f4eb560f238c01a06eec64736f6c63430008040033",
  "linkReferences": {},
  "deployedLinkReferences": {}
}